{
  "contractName": "Election",
  "abi": [
    {
      "inputs": [],
      "stateMutability": "nonpayable",
      "type": "constructor"
    },
    {
      "inputs": [],
      "name": "candidateCount",
      "outputs": [
        {
          "internalType": "uint256",
          "name": "",
          "type": "uint256"
        }
      ],
      "stateMutability": "view",
      "type": "function",
      "constant": true
    },
    {
      "inputs": [
        {
          "internalType": "uint256",
          "name": "",
          "type": "uint256"
        }
      ],
      "name": "candidates",
      "outputs": [
        {
          "internalType": "uint256",
          "name": "id",
          "type": "uint256"
        },
        {
          "internalType": "string",
          "name": "name",
          "type": "string"
        },
        {
          "internalType": "uint256",
          "name": "voteCount",
          "type": "uint256"
        }
      ],
      "stateMutability": "view",
      "type": "function",
      "constant": true
    }
  ],
  "bytecode": "0x608060405234801561001057600080fd5b506100556040518060400160405280600b81526020017f43616e646964617465203100000000000000000000000000000000000000000081525061009e60201b60201c565b6100996040518060400160405280600b81526020017f43616e646964617465203200000000000000000000000000000000000000000081525061009e60201b60201c565b6102a5565b600160008154809291906100b1906101fb565b9190505550604051806060016040528060015481526020018281526020016000815250600080600154815260200190815260200160002060008201518160000155602082015181600101908051906020019061010e92919061011f565b506040820151816002015590505050565b82805461012b90610273565b90600052602060002090601f01602090048101928261014d5760008555610194565b82601f1061016657805160ff1916838001178555610194565b82800160010185558215610194579182015b82811115610193578251825591602001919060010190610178565b5b5090506101a191906101a5565b5090565b5b808211156101be5760008160009055506001016101a6565b5090565b7f4e487b7100000000000000000000000000000000000000000000000000000000600052601160045260246000fd5b6000819050919050565b6000610206826101f1565b91507fffffffffffffffffffffffffffffffffffffffffffffffffffffffffffffffff821415610239576102386101c2565b5b600182019050919050565b7f4e487b7100000000000000000000000000000000000000000000000000000000600052602260045260246000fd5b6000600282049050600182168061028b57607f821691505b6020821081141561029f5761029e610244565b5b50919050565b610343806102b46000396000f3fe608060405234801561001057600080fd5b50600436106100365760003560e01c80633477ee2e1461003b578063a9a981a31461006d575b600080fd5b6100556004803603810190610050919061017e565b61008b565b60405161006493929190610253565b60405180910390f35b61007561013d565b6040516100829190610291565b60405180910390f35b60006020528060005260406000206000915090508060000154908060010180546100b4906102db565b80601f01602080910402602001604051908101604052809291908181526020018280546100e0906102db565b801561012d5780601f106101025761010080835404028352916020019161012d565b820191906000526020600020905b81548152906001019060200180831161011057829003601f168201915b5050505050908060020154905083565b60015481565b600080fd5b6000819050919050565b61015b81610148565b811461016657600080fd5b50565b60008135905061017881610152565b92915050565b60006020828403121561019457610193610143565b5b60006101a284828501610169565b91505092915050565b6101b481610148565b82525050565b600081519050919050565b600082825260208201905092915050565b60005b838110156101f45780820151818401526020810190506101d9565b83811115610203576000848401525b50505050565b6000601f19601f8301169050919050565b6000610225826101ba565b61022f81856101c5565b935061023f8185602086016101d6565b61024881610209565b840191505092915050565b600060608201905061026860008301866101ab565b818103602083015261027a818561021a565b905061028960408301846101ab565b949350505050565b60006020820190506102a660008301846101ab565b92915050565b7f4e487b7100000000000000000000000000000000000000000000000000000000600052602260045260246000fd5b600060028204905060018216806102f357607f821691505b60208210811415610307576103066102ac565b5b5091905056fea26469706673582212209e5d77cb3f041fb76116ef28cf76f1b827ddd2065c78a5c4bf67e2d6dbaf704564736f6c634300080b0033",
  "immutableReferences": {},
  "source": "// solidity version\r\npragma solidity ^0.8.11;\r\n\r\ncontract Election {\r\n    // model a candidate\r\n    struct Candidate {\r\n        uint256 id;\r\n        string name;\r\n        uint256 voteCount;\r\n    }\r\n    // store candidates\r\n    // fetch candidate\r\n    mapping(uint256 => Candidate) public candidates;\r\n    // store candidates count\r\n    uint256 public candidateCount;\r\n\r\n    // Constructor\r\n    constructor() {\r\n        addCandidate(\"Candidate 1\");\r\n        addCandidate(\"Candidate 2\");\r\n    }\r\n\r\n    function addCandidate(string memory _name) private {\r\n        candidateCount++;\r\n        candidates[candidateCount] = Candidate(candidateCount, _name, 0);\r\n    }\r\n}\r\n",
  "sourcePath": "C:\\Users\\HP\\Desktop\\election\\contracts\\Election.sol",
  "compiler": {
    "name": "solc",
    "version": "0.8.11+commit.d7f03943.Emscripten.clang"
  },
  "schemaVersion": "3.4.4",
  "updatedAt": "2022-01-16T05:13:13.714Z",
  "networkType": "ethereum",
  "devdoc": {
    "kind": "dev",
    "methods": {},
    "version": 1
  },
  "userdoc": {
    "kind": "user",
    "methods": {},
    "version": 1
  }
}